

Microchip MPLAB XC8 Assembler V2.32 build 20210201212658 
                                                                                               Sat Apr 10 10:54:05 2021

Microchip MPLAB XC8 C Compiler v2.32 (Free license) build 20210201212658 Og1 
     1                           	processor	16F887
     2                           	pagewidth 120
     3                           	opt	flic
     4                           	psect	cinit,global,class=CODE,merge=1,delta=2
     5                           	psect	cstackCOMMON,global,class=COMMON,space=1,delta=1,noexec
     6                           	psect	maintext,global,class=CODE,split=1,delta=2
     7                           	psect	config,global,abs,ovrld,class=CONFIG,space=4,delta=2,noexec
     8                           	dabs	1,0x7E,2
     9  0000                     
    10                           ; Version 2.20
    11                           ; Generated 12/02/2020 GMT
    12                           ; 
    13                           ; Copyright © 2020, Microchip Technology Inc. and its subsidiaries ("Microchip")
    14                           ; All rights reserved.
    15                           ; 
    16                           ; This software is developed by Microchip Technology Inc. and its subsidiaries ("Microch
      +                          ip").
    17                           ; 
    18                           ; Redistribution and use in source and binary forms, with or without modification, are
    19                           ; permitted provided that the following conditions are met:
    20                           ; 
    21                           ;     1. Redistributions of source code must retain the above copyright notice, this lis
      +                          t of
    22                           ;        conditions and the following disclaimer.
    23                           ; 
    24                           ;     2. Redistributions in binary form must reproduce the above copyright notice, this 
      +                          list
    25                           ;        of conditions and the following disclaimer in the documentation and/or other
    26                           ;        materials provided with the distribution.
    27                           ; 
    28                           ;     3. Microchip's name may not be used to endorse or promote products derived from th
      +                          is
    29                           ;        software without specific prior written permission.
    30                           ; 
    31                           ; THIS SOFTWARE IS PROVIDED BY MICROCHIP "AS IS" AND ANY EXPRESS OR IMPLIED WARRANTIES,
    32                           ; INCLUDING, BUT NOT LIMITED TO, THE IMPLIED WARRANTIES OF MERCHANTABILITY AND FITNESS F
      +                          OR
    33                           ; PURPOSE ARE DISCLAIMED.  IN NO EVENT SHALL MICROCHIP BE LIABLE FOR ANY DIRECT, INDIREC
      +                          T,
    34                           ; INCIDENTAL, SPECIAL, EXEMPLARY, OR CONSEQUENTIAL DAMAGES (INCLUDING BUT NOT LIMITED TO
    35                           ; PROCUREMENT OF SUBSTITUTE GOODS OR SERVICES; LOSS OF USE, DATA OR PROFITS; OR BUSINESS
    36                           ; INTERRUPTION) HOWSOEVER CAUSED AND ON ANY THEORY OF LIABILITY, WHETHER IN CONTRACT, ST
      +                          RICT
    37                           ; LIABILITY, OR TORT (INCLUDING NEGLIGENCE OR OTHERWISE) ARISING IN ANY WAY OUT OF THE U
      +                          SE OF
    38                           ; THIS SOFTWARE, EVEN IF ADVISED OF THE POSSIBILITY OF SUCH DAMAGE.
    39                           ; 
    40                           ; 
    41                           ; Code-generator required, PIC16F887 Definitions
    42                           ; 
    43                           ; SFR Addresses
    44  0000                     	;# 
    45  0001                     	;# 
    46  0002                     	;# 
    47  0003                     	;# 
    48  0004                     	;# 
    49  0005                     	;# 
    50  0006                     	;# 
    51  0007                     	;# 
    52  0008                     	;# 
    53  0009                     	;# 
    54  000A                     	;# 
    55  000B                     	;# 
    56  000C                     	;# 
    57  000D                     	;# 
    58  000E                     	;# 
    59  000E                     	;# 
    60  000F                     	;# 
    61  0010                     	;# 
    62  0011                     	;# 
    63  0012                     	;# 
    64  0013                     	;# 
    65  0014                     	;# 
    66  0015                     	;# 
    67  0015                     	;# 
    68  0016                     	;# 
    69  0017                     	;# 
    70  0018                     	;# 
    71  0019                     	;# 
    72  001A                     	;# 
    73  001B                     	;# 
    74  001B                     	;# 
    75  001C                     	;# 
    76  001D                     	;# 
    77  001E                     	;# 
    78  001F                     	;# 
    79  0081                     	;# 
    80  0085                     	;# 
    81  0086                     	;# 
    82  0087                     	;# 
    83  0088                     	;# 
    84  0089                     	;# 
    85  008C                     	;# 
    86  008D                     	;# 
    87  008E                     	;# 
    88  008F                     	;# 
    89  0090                     	;# 
    90  0091                     	;# 
    91  0092                     	;# 
    92  0093                     	;# 
    93  0093                     	;# 
    94  0093                     	;# 
    95  0094                     	;# 
    96  0095                     	;# 
    97  0096                     	;# 
    98  0097                     	;# 
    99  0098                     	;# 
   100  0099                     	;# 
   101  009A                     	;# 
   102  009B                     	;# 
   103  009C                     	;# 
   104  009D                     	;# 
   105  009E                     	;# 
   106  009F                     	;# 
   107  0105                     	;# 
   108  0107                     	;# 
   109  0108                     	;# 
   110  0109                     	;# 
   111  010C                     	;# 
   112  010C                     	;# 
   113  010D                     	;# 
   114  010E                     	;# 
   115  010F                     	;# 
   116  0185                     	;# 
   117  0187                     	;# 
   118  0188                     	;# 
   119  0189                     	;# 
   120  018C                     	;# 
   121  018D                     	;# 
   122  0000                     	;# 
   123  0001                     	;# 
   124  0002                     	;# 
   125  0003                     	;# 
   126  0004                     	;# 
   127  0005                     	;# 
   128  0006                     	;# 
   129  0007                     	;# 
   130  0008                     	;# 
   131  0009                     	;# 
   132  000A                     	;# 
   133  000B                     	;# 
   134  000C                     	;# 
   135  000D                     	;# 
   136  000E                     	;# 
   137  000E                     	;# 
   138  000F                     	;# 
   139  0010                     	;# 
   140  0011                     	;# 
   141  0012                     	;# 
   142  0013                     	;# 
   143  0014                     	;# 
   144  0015                     	;# 
   145  0015                     	;# 
   146  0016                     	;# 
   147  0017                     	;# 
   148  0018                     	;# 
   149  0019                     	;# 
   150  001A                     	;# 
   151  001B                     	;# 
   152  001B                     	;# 
   153  001C                     	;# 
   154  001D                     	;# 
   155  001E                     	;# 
   156  001F                     	;# 
   157  0081                     	;# 
   158  0085                     	;# 
   159  0086                     	;# 
   160  0087                     	;# 
   161  0088                     	;# 
   162  0089                     	;# 
   163  008C                     	;# 
   164  008D                     	;# 
   165  008E                     	;# 
   166  008F                     	;# 
   167  0090                     	;# 
   168  0091                     	;# 
   169  0092                     	;# 
   170  0093                     	;# 
   171  0093                     	;# 
   172  0093                     	;# 
   173  0094                     	;# 
   174  0095                     	;# 
   175  0096                     	;# 
   176  0097                     	;# 
   177  0098                     	;# 
   178  0099                     	;# 
   179  009A                     	;# 
   180  009B                     	;# 
   181  009C                     	;# 
   182  009D                     	;# 
   183  009E                     	;# 
   184  009F                     	;# 
   185  0105                     	;# 
   186  0107                     	;# 
   187  0108                     	;# 
   188  0109                     	;# 
   189  010C                     	;# 
   190  010C                     	;# 
   191  010D                     	;# 
   192  010E                     	;# 
   193  010F                     	;# 
   194  0185                     	;# 
   195  0187                     	;# 
   196  0188                     	;# 
   197  0189                     	;# 
   198  018C                     	;# 
   199  018D                     	;# 
   200  0005                     _PORTA	set	5
   201  002B                     _RA3	set	43
   202  002A                     _RA2	set	42
   203  0085                     _TRISA	set	133
   204  0188                     _ANSEL	set	392
   205                           
   206                           	psect	cinit
   207  07FC                     start_initialization:	
   208                           ; #config settings
   209                           
   210  07FC                     __initialization:
   211  07FC                     end_of_initialization:	
   212                           ;End of C runtime variable initialization code
   213                           
   214  07FC                     __end_of__initialization:
   215  07FC  0183               	clrf	3
   216  07FD  120A  118A  2FBB   	ljmp	_main	;jump to C main() function
   217                           
   218                           	psect	cstackCOMMON
   219  0070                     __pcstackCOMMON:
   220  0070                     ??_main:
   221  0070                     ?_main:	
   222                           ; 1 bytes @ 0x0
   223                           
   224                           
   225                           ; 2 bytes @ 0x0
   226  0070                     	ds	3
   227                           
   228                           	psect	maintext
   229  07BB                     __pmaintext:	
   230 ;;
   231 ;;Main: autosize = 0, tempsize = 3, incstack = 0, save=0
   232 ;;
   233 ;; *************** function _main *****************
   234 ;; Defined at:
   235 ;;		line 18 in file "main.c"
   236 ;; Parameters:    Size  Location     Type
   237 ;;		None
   238 ;; Auto vars:     Size  Location     Type
   239 ;;		None
   240 ;; Return value:  Size  Location     Type
   241 ;;                  2   16[None  ] int 
   242 ;; Registers used:
   243 ;;		wreg, status,2
   244 ;; Tracked objects:
   245 ;;		On entry : B00/0
   246 ;;		On exit  : 0/0
   247 ;;		Unchanged: 0/0
   248 ;; Data sizes:     COMMON   BANK0   BANK1   BANK3   BANK2
   249 ;;      Params:         0       0       0       0       0
   250 ;;      Locals:         0       0       0       0       0
   251 ;;      Temps:          3       0       0       0       0
   252 ;;      Totals:         3       0       0       0       0
   253 ;;Total ram usage:        3 bytes
   254 ;; This function calls:
   255 ;;		Nothing
   256 ;; This function is called by:
   257 ;;		Startup code after reset
   258 ;; This function uses a non-reentrant model
   259 ;;
   260                           
   261                           
   262                           ;psect for function _main
   263  07BB                     _main:
   264  07BB                     l616:	
   265                           ;incstack = 0
   266                           ; Regs used in _main: [wreg+status,2]
   267                           
   268                           
   269                           ;main.c: 20: 
   270  07BB  1283               	bcf	3,5	;RP0=0, select bank0
   271  07BC  1303               	bcf	3,6	;RP1=0, select bank0
   272  07BD  0185               	clrf	5	;volatile
   273                           
   274                           ;main.c: 21:         if(RA3 == 0)
   275  07BE  1683               	bsf	3,5	;RP0=1, select bank3
   276  07BF  1703               	bsf	3,6	;RP1=1, select bank3
   277  07C0  0188               	clrf	8	;volatile
   278  07C1                     l618:
   279                           
   280                           ;main.c: 22:         {
   281  07C1  300C               	movlw	12
   282  07C2  1683               	bsf	3,5	;RP0=1, select bank1
   283  07C3  1303               	bcf	3,6	;RP1=0, select bank1
   284  07C4  0085               	movwf	5	;volatile
   285  07C5                     l620:
   286                           
   287                           ;main.c: 25:             if(RA3 == 0);main.c: 26:             {
   288  07C5  1283               	bcf	3,5	;RP0=0, select bank0
   289  07C6  1905               	btfsc	5,2	;volatile
   290  07C7  2FC9               	goto	u11
   291  07C8  2FCA               	goto	u10
   292  07C9                     u11:
   293  07C9  2FDF               	goto	l628
   294  07CA                     u10:
   295  07CA                     l622:
   296                           
   297                           ;main.c: 27:                 PORTA = 0x30;;main.c: 28:             }
   298  07CA  3003               	movlw	3
   299  07CB  00F2               	movwf	??_main+2
   300  07CC  308A               	movlw	138
   301  07CD  00F1               	movwf	??_main+1
   302  07CE  3055               	movlw	85
   303  07CF  00F0               	movwf	??_main
   304  07D0                     u57:
   305  07D0  0BF0               	decfsz	??_main,f
   306  07D1  2FD0               	goto	u57
   307  07D2  0BF1               	decfsz	??_main+1,f
   308  07D3  2FD0               	goto	u57
   309  07D4  0BF2               	decfsz	??_main+2,f
   310  07D5  2FD0               	goto	u57
   311  07D6  2FD7               	nop2
   312  07D7                     l624:
   313                           
   314                           ;main.c: 30: 
   315  07D7  1283               	bcf	3,5	;RP0=0, select bank0
   316  07D8  1303               	bcf	3,6	;RP1=0, select bank0
   317  07D9  1905               	btfsc	5,2	;volatile
   318  07DA  2FDC               	goto	u21
   319  07DB  2FDD               	goto	u20
   320  07DC                     u21:
   321  07DC  2FDF               	goto	l628
   322  07DD                     u20:
   323  07DD                     l626:
   324                           
   325                           ;main.c: 31:     };main.c: 32: 
   326  07DD  3003               	movlw	3
   327  07DE  0085               	movwf	5	;volatile
   328  07DF                     l628:
   329  07DF  1985               	btfsc	5,3	;volatile
   330  07E0  2FE2               	goto	u31
   331  07E1  2FE3               	goto	u30
   332  07E2                     u31:
   333  07E2  2FC5               	goto	l620
   334  07E3                     u30:
   335  07E3                     l630:
   336  07E3  3003               	movlw	3
   337  07E4  00F2               	movwf	??_main+2
   338  07E5  308A               	movlw	138
   339  07E6  00F1               	movwf	??_main+1
   340  07E7  3055               	movlw	85
   341  07E8  00F0               	movwf	??_main
   342  07E9                     u67:
   343  07E9  0BF0               	decfsz	??_main,f
   344  07EA  2FE9               	goto	u67
   345  07EB  0BF1               	decfsz	??_main+1,f
   346  07EC  2FE9               	goto	u67
   347  07ED  0BF2               	decfsz	??_main+2,f
   348  07EE  2FE9               	goto	u67
   349  07EF  2FF0               	nop2
   350  07F0                     l632:
   351  07F0  1283               	bcf	3,5	;RP0=0, select bank0
   352  07F1  1303               	bcf	3,6	;RP1=0, select bank0
   353  07F2  1985               	btfsc	5,3	;volatile
   354  07F3  2FF5               	goto	u41
   355  07F4  2FF6               	goto	u40
   356  07F5                     u41:
   357  07F5  2FC5               	goto	l620
   358  07F6                     u40:
   359  07F6                     l634:
   360  07F6  3030               	movlw	48
   361  07F7  0085               	movwf	5	;volatile
   362  07F8  2FC5               	goto	l620
   363  07F9  120A  118A  2800   	ljmp	start
   364  07FC                     __end_of_main:
   365  007E                     btemp	set	126	;btemp
   366  007E                     wtemp0	set	126
   367                           
   368                           	psect	config
   369                           
   370                           ;Config register CONFIG1 @ 0x2007
   371                           ;	Oscillator Selection bits
   372                           ;	FOSC = HS, HS oscillator: High-speed crystal/resonator on RA6/OSC2/CLKOUT and RA7/OSC1
      +                          /CLKIN
   373                           ;	Watchdog Timer Enable bit
   374                           ;	WDTE = OFF, WDT disabled and can be enabled by SWDTEN bit of the WDTCON register
   375                           ;	Power-up Timer Enable bit
   376                           ;	PWRTE = OFF, PWRT disabled
   377                           ;	RE3/MCLR pin function select bit
   378                           ;	MCLRE = ON, RE3/MCLR pin function is MCLR
   379                           ;	Code Protection bit
   380                           ;	CP = OFF, Program memory code protection is disabled
   381                           ;	Data Code Protection bit
   382                           ;	CPD = OFF, Data memory code protection is disabled
   383                           ;	Brown Out Reset Selection bits
   384                           ;	BOREN = OFF, BOR disabled
   385                           ;	Internal External Switchover bit
   386                           ;	IESO = OFF, Internal/External Switchover mode is disabled
   387                           ;	Fail-Safe Clock Monitor Enabled bit
   388                           ;	FCMEN = OFF, Fail-Safe Clock Monitor is disabled
   389                           ;	Low Voltage Programming Enable bit
   390                           ;	LVP = OFF, RB3 pin has digital I/O, HV on MCLR must be used for programming
   391                           ;	In-Circuit Debugger Mode bit
   392                           ;	DEBUG = OFF, In-Circuit Debugger disabled, RB6/ICSPCLK and RB7/ICSPDAT are general pur
      +                          pose I/O pins
   393  2007                     	org	8199
   394  2007  20F2               	dw	8434

Data Sizes:
    Strings     0
    Constant    0
    Data        0
    BSS         0
    Persistent  0
    Stack       0

Auto Spaces:
    Space          Size  Autos    Used
    COMMON           14      3       3
    BANK0            80      0       0
    BANK1            80      0       0
    BANK3            96      0       0
    BANK2            96      0       0

Pointer List with Targets:

    None.

Critical Paths under _main in COMMON

    None.

Critical Paths under _main in BANK0

    None.

Critical Paths under _main in BANK1

    None.

Critical Paths under _main in BANK3

    None.

Critical Paths under _main in BANK2

    None.

Call Graph Tables:

 ---------------------------------------------------------------------------------
 (Depth) Function   	        Calls       Base Space   Used Autos Params    Refs
 ---------------------------------------------------------------------------------
 (0) _main                                                 3     3      0       0
                                              0 COMMON     3     3      0
 ---------------------------------------------------------------------------------
 Estimated maximum stack depth 0
 ---------------------------------------------------------------------------------

 Call Graph Graphs:

 _main (ROOT)

 Address spaces:
Name               Size   Autos  Total    Cost      Usage
BITCOMMON            E      0       0       0        0.0%
EEDATA             100      0       0       0        0.0%
NULL                 0      0       0       0        0.0%
CODE                 0      0       0       0        0.0%
COMMON               E      3       3       1       21.4%
BITSFR0              0      0       0       1        0.0%
SFR0                 0      0       0       1        0.0%
BITSFR1              0      0       0       2        0.0%
SFR1                 0      0       0       2        0.0%
STACK                0      0       0       2        0.0%
ABS                  0      0       0       3        0.0%
BITBANK0            50      0       0       4        0.0%
BITSFR3              0      0       0       4        0.0%
SFR3                 0      0       0       4        0.0%
BANK0               50      0       0       5        0.0%
BITSFR2              0      0       0       5        0.0%
SFR2                 0      0       0       5        0.0%
BITBANK1            50      0       0       6        0.0%
BANK1               50      0       0       7        0.0%
BITBANK3            60      0       0       8        0.0%
BANK3               60      0       0       9        0.0%
BITBANK2            60      0       0      10        0.0%
BANK2               60      0       0      11        0.0%
DATA                 0      0       0      12        0.0%


Microchip Technology PIC Macro Assembler V2.32 build 20210201212658 
Symbol Table                                                                                   Sat Apr 10 10:54:05 2021

                     u10 07CA                       u11 07C9                       u20 07DD  
                     u21 07DC                       u30 07E3                       u31 07E2  
                     u40 07F6                       u41 07F5                       u57 07D0  
                     u67 07E9                      l620 07C5                      l630 07E3  
                    l622 07CA                      l632 07F0                      l624 07D7  
                    l616 07BB                      l634 07F6                      l626 07DD  
                    l618 07C1                      l628 07DF                      _RA2 002A  
                    _RA3 002B                     _main 07BB                     btemp 007E  
                   start 0000                    ?_main 0070                    _ANSEL 0188  
                  _PORTA 0005                    _TRISA 0085                    status 0003  
                  wtemp0 007E          __initialization 07FC             __end_of_main 07FC  
                 ??_main 0070  __end_of__initialization 07FC           __pcstackCOMMON 0070  
             __pmaintext 07BB     end_of_initialization 07FC      start_initialization 07FC  
              ___latbits 0002            __size_of_main 0041  
