:020000040000FA
:100000000A128A11FC2F00308A000408840A820731
:1000100000343F3406345B344F3466346D347D3401
:0600200007347F346F3449
:100D0E00F300F201731C8C2E8D2E912E7008F100C3
:100D1E007108F2070310F00D0310F30C7308031D96
:100D2E00992E9A2E892E72080800F401F501701C76
:100D3E00A12EA22EA82E7208F4070318F50A730826
:100D4E00F50701300310F20DF30DFF3E031DA92E22
:100D5E0001300310F10CF00CFF3E031DB02E700895
:100D6E007104031DBB2EBC2E9E2E7508F100740857
:100D7E00F000080083120313AB01AC01AD01870133
:100D8E00831603138701831203138801831603133B
:100D9E00880183122D08A5002C08A4000A128A11BE
:100DAE0063270A128A11013083120313AA002A083C
:100DBE00AB070C302B06031DE52EE62ED02EAB0115
:100DCE000130AC070318AD0A0030AD0764302C06B5
:100DDE002D04031DF32EF42ED02EAC01AD01D02E1A
:100DEE000A128A11002883120313A101F71F002F84
:100DFE00012F082FF609F709F60A0319F70AA101C0
:100E0E00A10AF91F0B2F0C2F152FF809F909F80A53
:100E1E000319F90A0130FA007A08A106A201A3010A
:100E2E007608770403191C2F1D2F542FA001A00A3A
:100E3E002B2F01300310F60DF70DFF3E031D212F52
:100E4E000130FA007A08A007F71F2E2F2F2F202F20
:100E5E0001300310A20DA30DFF3E031D302F7708A6
:100E6E007902031D3C2F76087802031C3F2F402F7A
:100E7E00472F7608F8027708031CF903F9022214AB
:100E8E0001300310F70CF60CFF3E031D482F013006
:100E9E00A002031D532F542F2F2F21080319582F53
:100EAE00592F5E2FA209A309A20A0319A30A230828
:100EBE00F7002208F6000800FD01FB016430F60081
:100ECE000030F700831203132508F9002408F800F8
:100EDE000A128A11FA260A128A117608831203134D
:100EEE00A6002608FC000A30F6000030F7007C0849
:100EFE00A600A7012608F0002708F1009C30F2009A
:100F0E00FF30F3000A128A119C260A128A118312EC
:100F1E00031324087007F80025080318250A710723
:100F2E00F9000A128A11FA260A128A117608831219
:100F3E000313A8002808FD009C30A6002608F00028
:100F4E007C080A128A1187260A128A118312031349
:100F5E00A700F630A8002808F0007D080A128A11B2
:100F6E0087260A128A118312031327072407A90062
:100F7E002908FB007B08013E84000A128A11032017
:100F8E000A128A118700023088000230831203137E
:100F9E00A8000430A700B930A600A60BD42FA70BCB
:100FAE00D42FA80BD42FDB2F8312031388017D08B7
:100FBE00013E84000A128A1103200A128A11870048
:100FCE0001308800023083120313A8000430A700FA
:100FDE00B930A600A60BF12FA70BF12FA80BF12FFE
:100FEE00F82F831203138801080083010A128A1155
:020FFE00C12E02
:02400E00F2209E
:00000001FF
