

Microchip MPLAB XC8 Assembler V2.32 build 20210201212658 
                                                                                               Sat Apr 10 14:24:42 2021

Microchip MPLAB XC8 C Compiler v2.32 (Free license) build 20210201212658 Og1 
     1                           	processor	16F887
     2                           	pagewidth 120
     3                           	opt	flic
     4                           	psect	cinit,global,class=CODE,merge=1,delta=2
     5                           	psect	cstackCOMMON,global,class=COMMON,space=1,delta=1,noexec
     6                           	psect	maintext,global,class=CODE,split=1,delta=2
     7                           	psect	config,global,abs,ovrld,class=CONFIG,space=4,delta=2,noexec
     8                           	dabs	1,0x7E,2
     9  0000                     
    10                           ; Version 2.20
    11                           ; Generated 12/02/2020 GMT
    12                           ; 
    13                           ; Copyright © 2020, Microchip Technology Inc. and its subsidiaries ("Microchip")
    14                           ; All rights reserved.
    15                           ; 
    16                           ; This software is developed by Microchip Technology Inc. and its subsidiaries ("Microch
      +                          ip").
    17                           ; 
    18                           ; Redistribution and use in source and binary forms, with or without modification, are
    19                           ; permitted provided that the following conditions are met:
    20                           ; 
    21                           ;     1. Redistributions of source code must retain the above copyright notice, this lis
      +                          t of
    22                           ;        conditions and the following disclaimer.
    23                           ; 
    24                           ;     2. Redistributions in binary form must reproduce the above copyright notice, this 
      +                          list
    25                           ;        of conditions and the following disclaimer in the documentation and/or other
    26                           ;        materials provided with the distribution.
    27                           ; 
    28                           ;     3. Microchip's name may not be used to endorse or promote products derived from th
      +                          is
    29                           ;        software without specific prior written permission.
    30                           ; 
    31                           ; THIS SOFTWARE IS PROVIDED BY MICROCHIP "AS IS" AND ANY EXPRESS OR IMPLIED WARRANTIES,
    32                           ; INCLUDING, BUT NOT LIMITED TO, THE IMPLIED WARRANTIES OF MERCHANTABILITY AND FITNESS F
      +                          OR
    33                           ; PURPOSE ARE DISCLAIMED.  IN NO EVENT SHALL MICROCHIP BE LIABLE FOR ANY DIRECT, INDIREC
      +                          T,
    34                           ; INCIDENTAL, SPECIAL, EXEMPLARY, OR CONSEQUENTIAL DAMAGES (INCLUDING BUT NOT LIMITED TO
    35                           ; PROCUREMENT OF SUBSTITUTE GOODS OR SERVICES; LOSS OF USE, DATA OR PROFITS; OR BUSINESS
    36                           ; INTERRUPTION) HOWSOEVER CAUSED AND ON ANY THEORY OF LIABILITY, WHETHER IN CONTRACT, ST
      +                          RICT
    37                           ; LIABILITY, OR TORT (INCLUDING NEGLIGENCE OR OTHERWISE) ARISING IN ANY WAY OUT OF THE U
      +                          SE OF
    38                           ; THIS SOFTWARE, EVEN IF ADVISED OF THE POSSIBILITY OF SUCH DAMAGE.
    39                           ; 
    40                           ; 
    41                           ; Code-generator required, PIC16F887 Definitions
    42                           ; 
    43                           ; SFR Addresses
    44  0000                     	;# 
    45  0001                     	;# 
    46  0002                     	;# 
    47  0003                     	;# 
    48  0004                     	;# 
    49  0005                     	;# 
    50  0006                     	;# 
    51  0007                     	;# 
    52  0008                     	;# 
    53  0009                     	;# 
    54  000A                     	;# 
    55  000B                     	;# 
    56  000C                     	;# 
    57  000D                     	;# 
    58  000E                     	;# 
    59  000E                     	;# 
    60  000F                     	;# 
    61  0010                     	;# 
    62  0011                     	;# 
    63  0012                     	;# 
    64  0013                     	;# 
    65  0014                     	;# 
    66  0015                     	;# 
    67  0015                     	;# 
    68  0016                     	;# 
    69  0017                     	;# 
    70  0018                     	;# 
    71  0019                     	;# 
    72  001A                     	;# 
    73  001B                     	;# 
    74  001B                     	;# 
    75  001C                     	;# 
    76  001D                     	;# 
    77  001E                     	;# 
    78  001F                     	;# 
    79  0081                     	;# 
    80  0085                     	;# 
    81  0086                     	;# 
    82  0087                     	;# 
    83  0088                     	;# 
    84  0089                     	;# 
    85  008C                     	;# 
    86  008D                     	;# 
    87  008E                     	;# 
    88  008F                     	;# 
    89  0090                     	;# 
    90  0091                     	;# 
    91  0092                     	;# 
    92  0093                     	;# 
    93  0093                     	;# 
    94  0093                     	;# 
    95  0094                     	;# 
    96  0095                     	;# 
    97  0096                     	;# 
    98  0097                     	;# 
    99  0098                     	;# 
   100  0099                     	;# 
   101  009A                     	;# 
   102  009B                     	;# 
   103  009C                     	;# 
   104  009D                     	;# 
   105  009E                     	;# 
   106  009F                     	;# 
   107  0105                     	;# 
   108  0107                     	;# 
   109  0108                     	;# 
   110  0109                     	;# 
   111  010C                     	;# 
   112  010C                     	;# 
   113  010D                     	;# 
   114  010E                     	;# 
   115  010F                     	;# 
   116  0185                     	;# 
   117  0187                     	;# 
   118  0188                     	;# 
   119  0189                     	;# 
   120  018C                     	;# 
   121  018D                     	;# 
   122  0000                     	;# 
   123  0001                     	;# 
   124  0002                     	;# 
   125  0003                     	;# 
   126  0004                     	;# 
   127  0005                     	;# 
   128  0006                     	;# 
   129  0007                     	;# 
   130  0008                     	;# 
   131  0009                     	;# 
   132  000A                     	;# 
   133  000B                     	;# 
   134  000C                     	;# 
   135  000D                     	;# 
   136  000E                     	;# 
   137  000E                     	;# 
   138  000F                     	;# 
   139  0010                     	;# 
   140  0011                     	;# 
   141  0012                     	;# 
   142  0013                     	;# 
   143  0014                     	;# 
   144  0015                     	;# 
   145  0015                     	;# 
   146  0016                     	;# 
   147  0017                     	;# 
   148  0018                     	;# 
   149  0019                     	;# 
   150  001A                     	;# 
   151  001B                     	;# 
   152  001B                     	;# 
   153  001C                     	;# 
   154  001D                     	;# 
   155  001E                     	;# 
   156  001F                     	;# 
   157  0081                     	;# 
   158  0085                     	;# 
   159  0086                     	;# 
   160  0087                     	;# 
   161  0088                     	;# 
   162  0089                     	;# 
   163  008C                     	;# 
   164  008D                     	;# 
   165  008E                     	;# 
   166  008F                     	;# 
   167  0090                     	;# 
   168  0091                     	;# 
   169  0092                     	;# 
   170  0093                     	;# 
   171  0093                     	;# 
   172  0093                     	;# 
   173  0094                     	;# 
   174  0095                     	;# 
   175  0096                     	;# 
   176  0097                     	;# 
   177  0098                     	;# 
   178  0099                     	;# 
   179  009A                     	;# 
   180  009B                     	;# 
   181  009C                     	;# 
   182  009D                     	;# 
   183  009E                     	;# 
   184  009F                     	;# 
   185  0105                     	;# 
   186  0107                     	;# 
   187  0108                     	;# 
   188  0109                     	;# 
   189  010C                     	;# 
   190  010C                     	;# 
   191  010D                     	;# 
   192  010E                     	;# 
   193  010F                     	;# 
   194  0185                     	;# 
   195  0187                     	;# 
   196  0188                     	;# 
   197  0189                     	;# 
   198  018C                     	;# 
   199  018D                     	;# 
   200  0007                     _PORTC	set	7
   201  003F                     _RC7	set	63
   202  003E                     _RC6	set	62
   203  0087                     _TRISC	set	135
   204                           
   205                           	psect	cinit
   206  07FC                     start_initialization:	
   207                           ; #config settings
   208                           
   209  07FC                     __initialization:
   210  07FC                     end_of_initialization:	
   211                           ;End of C runtime variable initialization code
   212                           
   213  07FC                     __end_of__initialization:
   214  07FC  0183               	clrf	3
   215  07FD  120A  118A  2FA1   	ljmp	_main	;jump to C main() function
   216                           
   217                           	psect	cstackCOMMON
   218  0070                     __pcstackCOMMON:
   219  0070                     ??_main:
   220  0070                     ?_main:	
   221                           ; 1 bytes @ 0x0
   222                           
   223                           
   224                           ; 2 bytes @ 0x0
   225  0070                     	ds	3
   226                           
   227                           	psect	maintext
   228  07A1                     __pmaintext:	
   229 ;;
   230 ;;Main: autosize = 0, tempsize = 3, incstack = 0, save=0
   231 ;;
   232 ;; *************** function _main *****************
   233 ;; Defined at:
   234 ;;		line 18 in file "main.c"
   235 ;; Parameters:    Size  Location     Type
   236 ;;		None
   237 ;; Auto vars:     Size  Location     Type
   238 ;;		None
   239 ;; Return value:  Size  Location     Type
   240 ;;                  2   14[None  ] int 
   241 ;; Registers used:
   242 ;;		wreg, status,2
   243 ;; Tracked objects:
   244 ;;		On entry : B00/0
   245 ;;		On exit  : 0/0
   246 ;;		Unchanged: 0/0
   247 ;; Data sizes:     COMMON   BANK0   BANK1   BANK3   BANK2
   248 ;;      Params:         0       0       0       0       0
   249 ;;      Locals:         0       0       0       0       0
   250 ;;      Temps:          3       0       0       0       0
   251 ;;      Totals:         3       0       0       0       0
   252 ;;Total ram usage:        3 bytes
   253 ;; This function calls:
   254 ;;		Nothing
   255 ;; This function is called by:
   256 ;;		Startup code after reset
   257 ;; This function uses a non-reentrant model
   258 ;;
   259                           
   260                           
   261                           ;psect for function _main
   262  07A1                     _main:
   263  07A1                     l614:	
   264                           ;incstack = 0
   265                           ; Regs used in _main: [wreg+status,2]
   266                           
   267                           
   268                           ;main.c: 20: 
   269  07A1  1283               	bcf	3,5	;RP0=0, select bank0
   270  07A2  1303               	bcf	3,6	;RP1=0, select bank0
   271  07A3  0187               	clrf	7	;volatile
   272  07A4                     l616:
   273                           
   274                           ;main.c: 21:         if(RC7 == 0)
   275  07A4  30C0               	movlw	192
   276  07A5  1683               	bsf	3,5	;RP0=1, select bank1
   277  07A6  1303               	bcf	3,6	;RP1=0, select bank1
   278  07A7  0087               	movwf	7	;volatile
   279  07A8                     l618:
   280                           
   281                           ;main.c: 24: ;main.c: 25:             if(RC7 == 0)
   282  07A8  1283               	bcf	3,5	;RP0=0, select bank0
   283  07A9  1303               	bcf	3,6	;RP1=0, select bank0
   284  07AA  1B07               	btfsc	7,6	;volatile
   285  07AB  2FAD               	goto	u11
   286  07AC  2FAE               	goto	u10
   287  07AD                     u11:
   288  07AD  2FD0               	goto	l626
   289  07AE                     u10:
   290  07AE                     l620:
   291                           
   292                           ;main.c: 26:             {;main.c: 27:               PORTC = 0x3F;
   293  07AE  3003               	movlw	3
   294  07AF  00F2               	movwf	??_main+2
   295  07B0  308A               	movlw	138
   296  07B1  00F1               	movwf	??_main+1
   297  07B2  3055               	movlw	85
   298  07B3  00F0               	movwf	??_main
   299  07B4                     u57:
   300  07B4  0BF0               	decfsz	??_main,f
   301  07B5  2FB4               	goto	u57
   302  07B6  0BF1               	decfsz	??_main+1,f
   303  07B7  2FB4               	goto	u57
   304  07B8  0BF2               	decfsz	??_main+2,f
   305  07B9  2FB4               	goto	u57
   306  07BA  2FBB               	nop2
   307  07BB                     l622:
   308                           
   309                           ;main.c: 29:             }
   310  07BB  1283               	bcf	3,5	;RP0=0, select bank0
   311  07BC  1303               	bcf	3,6	;RP1=0, select bank0
   312  07BD  1B07               	btfsc	7,6	;volatile
   313  07BE  2FC0               	goto	u21
   314  07BF  2FC1               	goto	u20
   315  07C0                     u21:
   316  07C0  2FD0               	goto	l626
   317  07C1                     u20:
   318  07C1                     l624:
   319                           
   320                           ;main.c: 30:         };main.c: 31:     }
   321  07C1  30C0               	movlw	192
   322  07C2  0087               	movwf	7	;volatile
   323                           
   324                           ;main.c: 32: 
   325  07C3  3003               	movlw	3
   326  07C4  00F2               	movwf	??_main+2
   327  07C5  308A               	movlw	138
   328  07C6  00F1               	movwf	??_main+1
   329  07C7  3055               	movlw	85
   330  07C8  00F0               	movwf	??_main
   331  07C9                     u67:
   332  07C9  0BF0               	decfsz	??_main,f
   333  07CA  2FC9               	goto	u67
   334  07CB  0BF1               	decfsz	??_main+1,f
   335  07CC  2FC9               	goto	u67
   336  07CD  0BF2               	decfsz	??_main+2,f
   337  07CE  2FC9               	goto	u67
   338  07CF  2FD0               	nop2
   339  07D0                     l626:
   340  07D0  1283               	bcf	3,5	;RP0=0, select bank0
   341  07D1  1303               	bcf	3,6	;RP1=0, select bank0
   342  07D2  1B87               	btfsc	7,7	;volatile
   343  07D3  2FD5               	goto	u31
   344  07D4  2FD6               	goto	u30
   345  07D5                     u31:
   346  07D5  2FA8               	goto	l618
   347  07D6                     u30:
   348  07D6                     l628:
   349  07D6  3003               	movlw	3
   350  07D7  00F2               	movwf	??_main+2
   351  07D8  308A               	movlw	138
   352  07D9  00F1               	movwf	??_main+1
   353  07DA  3055               	movlw	85
   354  07DB  00F0               	movwf	??_main
   355  07DC                     u77:
   356  07DC  0BF0               	decfsz	??_main,f
   357  07DD  2FDC               	goto	u77
   358  07DE  0BF1               	decfsz	??_main+1,f
   359  07DF  2FDC               	goto	u77
   360  07E0  0BF2               	decfsz	??_main+2,f
   361  07E1  2FDC               	goto	u77
   362  07E2  2FE3               	nop2
   363  07E3                     l630:
   364  07E3  1283               	bcf	3,5	;RP0=0, select bank0
   365  07E4  1303               	bcf	3,6	;RP1=0, select bank0
   366  07E5  1B87               	btfsc	7,7	;volatile
   367  07E6  2FE8               	goto	u41
   368  07E7  2FE9               	goto	u40
   369  07E8                     u41:
   370  07E8  2FA8               	goto	l618
   371  07E9                     u40:
   372  07E9                     l632:
   373  07E9  303F               	movlw	63
   374  07EA  0087               	movwf	7	;volatile
   375  07EB  3003               	movlw	3
   376  07EC  00F2               	movwf	??_main+2
   377  07ED  308A               	movlw	138
   378  07EE  00F1               	movwf	??_main+1
   379  07EF  3055               	movlw	85
   380  07F0  00F0               	movwf	??_main
   381  07F1                     u87:
   382  07F1  0BF0               	decfsz	??_main,f
   383  07F2  2FF1               	goto	u87
   384  07F3  0BF1               	decfsz	??_main+1,f
   385  07F4  2FF1               	goto	u87
   386  07F5  0BF2               	decfsz	??_main+2,f
   387  07F6  2FF1               	goto	u87
   388  07F7  2FF8               	nop2
   389  07F8  2FA8               	goto	l618
   390  07F9  120A  118A  2800   	ljmp	start
   391  07FC                     __end_of_main:
   392  007E                     btemp	set	126	;btemp
   393  007E                     wtemp0	set	126
   394                           
   395                           	psect	config
   396                           
   397                           ;Config register CONFIG1 @ 0x2007
   398                           ;	Oscillator Selection bits
   399                           ;	FOSC = HS, HS oscillator: High-speed crystal/resonator on RA6/OSC2/CLKOUT and RA7/OSC1
      +                          /CLKIN
   400                           ;	Watchdog Timer Enable bit
   401                           ;	WDTE = OFF, WDT disabled and can be enabled by SWDTEN bit of the WDTCON register
   402                           ;	Power-up Timer Enable bit
   403                           ;	PWRTE = OFF, PWRT disabled
   404                           ;	RE3/MCLR pin function select bit
   405                           ;	MCLRE = ON, RE3/MCLR pin function is MCLR
   406                           ;	Code Protection bit
   407                           ;	CP = OFF, Program memory code protection is disabled
   408                           ;	Data Code Protection bit
   409                           ;	CPD = OFF, Data memory code protection is disabled
   410                           ;	Brown Out Reset Selection bits
   411                           ;	BOREN = OFF, BOR disabled
   412                           ;	Internal External Switchover bit
   413                           ;	IESO = OFF, Internal/External Switchover mode is disabled
   414                           ;	Fail-Safe Clock Monitor Enabled bit
   415                           ;	FCMEN = OFF, Fail-Safe Clock Monitor is disabled
   416                           ;	Low Voltage Programming Enable bit
   417                           ;	LVP = OFF, RB3 pin has digital I/O, HV on MCLR must be used for programming
   418                           ;	In-Circuit Debugger Mode bit
   419                           ;	DEBUG = OFF, In-Circuit Debugger disabled, RB6/ICSPCLK and RB7/ICSPDAT are general pur
      +                          pose I/O pins
   420  2007                     	org	8199
   421  2007  20F2               	dw	8434

Data Sizes:
    Strings     0
    Constant    0
    Data        0
    BSS         0
    Persistent  0
    Stack       0

Auto Spaces:
    Space          Size  Autos    Used
    COMMON           14      3       3
    BANK0            80      0       0
    BANK1            80      0       0
    BANK3            96      0       0
    BANK2            96      0       0

Pointer List with Targets:

    None.

Critical Paths under _main in COMMON

    None.

Critical Paths under _main in BANK0

    None.

Critical Paths under _main in BANK1

    None.

Critical Paths under _main in BANK3

    None.

Critical Paths under _main in BANK2

    None.

Call Graph Tables:

 ---------------------------------------------------------------------------------
 (Depth) Function   	        Calls       Base Space   Used Autos Params    Refs
 ---------------------------------------------------------------------------------
 (0) _main                                                 3     3      0       0
                                              0 COMMON     3     3      0
 ---------------------------------------------------------------------------------
 Estimated maximum stack depth 0
 ---------------------------------------------------------------------------------

 Call Graph Graphs:

 _main (ROOT)

 Address spaces:
Name               Size   Autos  Total    Cost      Usage
BITCOMMON            E      0       0       0        0.0%
EEDATA             100      0       0       0        0.0%
NULL                 0      0       0       0        0.0%
CODE                 0      0       0       0        0.0%
COMMON               E      3       3       1       21.4%
BITSFR0              0      0       0       1        0.0%
SFR0                 0      0       0       1        0.0%
BITSFR1              0      0       0       2        0.0%
SFR1                 0      0       0       2        0.0%
STACK                0      0       0       2        0.0%
ABS                  0      0       0       3        0.0%
BITBANK0            50      0       0       4        0.0%
BITSFR3              0      0       0       4        0.0%
SFR3                 0      0       0       4        0.0%
BANK0               50      0       0       5        0.0%
BITSFR2              0      0       0       5        0.0%
SFR2                 0      0       0       5        0.0%
BITBANK1            50      0       0       6        0.0%
BANK1               50      0       0       7        0.0%
BITBANK3            60      0       0       8        0.0%
BANK3               60      0       0       9        0.0%
BITBANK2            60      0       0      10        0.0%
BANK2               60      0       0      11        0.0%
DATA                 0      0       0      12        0.0%


Microchip Technology PIC Macro Assembler V2.32 build 20210201212658 
Symbol Table                                                                                   Sat Apr 10 14:24:42 2021

                     u10 07AE                       u11 07AD                       u20 07C1  
                     u21 07C0                       u30 07D6                       u31 07D5  
                     u40 07E9                       u41 07E8                       u57 07B4  
                     u67 07C9                       u77 07DC                       u87 07F1  
                    l620 07AE                      l630 07E3                      l622 07BB  
                    l614 07A1                      l632 07E9                      l624 07C1  
                    l616 07A4                      l626 07D0                      l618 07A8  
                    l628 07D6                      _RC6 003E                      _RC7 003F  
                   _main 07A1                     btemp 007E                     start 0000  
                  ?_main 0070                    _PORTC 0007                    _TRISC 0087  
                  status 0003                    wtemp0 007E          __initialization 07FC  
           __end_of_main 07FC                   ??_main 0070  __end_of__initialization 07FC  
         __pcstackCOMMON 0070               __pmaintext 07A1     end_of_initialization 07FC  
    start_initialization 07FC                ___latbits 0002            __size_of_main 005B  
